:020000040800F2
:1000000088040020050100088F140008331300083D
:100010008D14000873020008371700080000000064
:10002000000000000000000000000000E3150008D0
:10003000750200080000000091140008E515000892
:100040001F0100081F0100081F0100081F01000810
:100050001F0100081F0100081F0100081F01000800
:100060001F0100081F0100081F0100081F010008F0
:100070001F0100081F0100081F0100081F010008E0
:100080001F0100081F0100081F0100081F010008D0
:100090001F0100081F0100081F0100081F010008C0
:1000A0001F010008551600081F0100081F01000865
:1000B0001F0100081F0100081F0100081F010008A0
:1000C0001F0100081F0100081F0100081F01000890
:1000D0001F0100081F0100081F0100081F01000880
:1000E0001F0100081F0100081F010008DFF810D0E1
:1000F00000F09EF80048004721180008AFF3008088
:10010000880400200648804706480047FEE7FEE7CF
:10011000FEE7FEE7FEE7FEE7FEE7FEE7FEE7FEE7B7
:1001200051160008ED0000082DE9F0410024061BDF
:10013000254671F1000605DA01240027D0EB0700FF
:1001400067EB0101161E73F1000605DA0027D2EBFA
:100150000702012567EB030300F039F886460E46D7
:1001600017469C46AC4204D00025D0EB050E65EB4B
:10017000010624B10020D2EB000760EB030C7046AF
:1001800031463A466346BDE8F081202A04DB203A36
:1001900021FA02F00021704721FA02F3D040C2F1A7
:1001A00020029140084319467047D2B201E000F89E
:1001B000012B491EFBD270470022F6E710B513460B
:1001C0000A4604461946FFF7F0FF204610BD2DE908
:1001D000F05F0546002092469B46884606468146CB
:1001E00040241BE02846414647462246FFF7CDFF04
:1001F00053465A46C01A914110D31146184622461A
:1002000000F028F82D1A67EB01084F46224601201E
:10021000002100F01FF817EB00094E41201EA4F149
:100220000104DFDC484631462A464346BDE8F09FDC
:10023000064C074D06E0E06840F0010394E8070033
:1002400098471034AC42F6D3FFF754FFD81A000891
:10025000F81A0008202A04DB203A00FA02F10020F4
:1002600070479140C2F1200320FA03F319439040F4
:100270007047FEE7704700002DE9F84FDFF8B891AE
:10028000002409F1040A0AF1040B23460F270BF19D
:10029000040EC9E00125A5402A40AA427DD1674E3F
:1002A000D1F804C0ACEB0608B44532D014DCBCF184
:1002B000030F3AD009DCBCF1000F2AD0BCF1010FCA
:1002C0001CD0BCF1020F31D11DE0BCF1110F17D0D1
:1002D000BCF1120F2AD119E0B8F5881F19D006DC3D
:1002E000B8F5803F15D0B8F5801F1FD111E0B8F5E3
:1002F000001F0ED0B8F5041F18D10AE0CB6815E036
:10030000CB681B1D12E0CB6808330FE0CB680C33C1
:100310000CE08B682BB1012B4FF0080303D0456133
:1003200004E0042302E0056100E00023FF2A01D875
:10033000064601E000F104064FEA840501D9A5F163
:100340002005D6F8008007FA05FC28EA0C0803FA15
:1003500005F548EA0508C6F800804D68ED0062D54D
:10036000374DAE6946F00106AE61AD6924F0030673
:1003700005F001050095334D06EB050CDCF808503F
:10038000A607360F07FA06F825EA0805DFF8B88051
:10039000404503D14FF0000817E044E0DFF8AC809F
:1003A000404502D14FF001080FE0DFF8A48040453E
:1003B00002D14FF0020808E0DFF89880404502D1F2
:1003C0004FF0030801E04FF0040808FA06F848EA85
:1003D0000508CCF808804D68D9F80060ED034D465B
:1003E00001D5164300E096432E604D68DAF80060B0
:1003F000AD03554601D5164300E096432E604D6887
:10040000DBF80060ED025D4601D5164300E096433F
:100410002E604D68DEF80060AD02754601D51643CA
:1004200000E096432E60641C0D682A46E5407FF488
:1004300031AFBDE8F88F000000040140000011104A
:10044000001002400000014000080140000C014083
:100450000010014000140140C26821EA02030A4072
:1004600043EA0241016170470AB101617047090422
:10047000FBE700000148806870470000180000207A
:10048000024881680278114481607047180000209A
:10049000074810B5016841F010010160032000F029
:1004A00075F8002000F006F800F024F8002010BDD8
:1004B0000020024070B50D4D04464FF47A71287843
:1004C000B1FBF0F00A490968B1FBF0F000F0FBFC69
:1004D00048B9102C07D200222146501E00F036F8F1
:1004E00000206C6070BD012070BD0000180000206D
:1004F000240000200C4808B5816941F001018161A8
:10050000816901F001010091C16941F08051C1612F
:10051000C06900F0805000900448416821F0E0611B
:1005200041F00071416008BD001002400000014030
:10053000002809DB00F01F020121914040098000E2
:1005400000F1E020C0F8001170470000F0B40E4B3D
:100550001B680C46C3F30223C3F10705042D00D921
:100560000425191D072901D2002300E0DB1E012606
:1005700006FA05F1491E214099409E40761E16401C
:100580003143F0BC01F0D8B80CED00E0064900F0B2
:10059000070208684FF6FF03184040EA0220034AAA
:1005A00010430860704700000CED00E00000FA0501
:1005B000014901200862704700000E4210B529A4CD
:1005C00001461DCC86B08DE81D002AA02A4C00688B
:1005D00004900020012923D002293AD010291DD1EE
:1005E00061682268D20119D5C1F38342C9031DF89D
:1005F000020009D5616804AAC1F34041515C1F4A59
:10060000B2FBF1F1484301E01D49484361684902EA
:1006100004D440005FF00301B0FBF1F006B010BD60
:10062000226AC2F30121012903D1920701D5C8032F
:10063000F4E7022905D1626A920702D549F64040E3
:10064000ECE70329EAD121688903E7D54FF224407A
:10065000E4E700F023F96168C1F38131491C4900E6
:10066000DAE7000002030405060708090A0B0C0D6F
:100670000E0F1010010200000010024000127A005C
:1006800000093D002DE9F84305460078354CC007C8
:1006900054D0E0690026C00008D4E06940F08050E2
:1006A000E061E069012600F0805000902E4801686A
:1006B000C90512D40168804641F480710160FFF7DA
:1006C000D9FE074605E000BFFFF7D4FEC01B642833
:1006D00023D8D8F80000C005F6D5206A10F4407081
:1006E00021D0A98801F4407181421CD0206A1F49A1
:1006F000012220F440700A6000220A602062C007D4
:1007000011D0FFF7B7FE074641F2883808E000BF76
:10071000FFF7B0FEC11B414502D90320BDE8F883B5
:10072000206A8007F4D5206A696820F44070084385
:1007300020621EB1E06920F08050E06128788007D7
:1007400005D56068A96820F44040084360602878B7
:10075000C00605D56068E96820F480000843606041
:100760000020DBE7001002400070004040044242DD
:100770002DE9F0470F46050061D0434E306800F088
:100780000700B84209D2306820F0070038433060D3
:10079000306800F00700B84251D128683B4C81070F
:1007A00012D5400703D5606840F4E06060602878A7
:1007B000000703D5606840F4605060606068A96815
:1007C00020F0F000084360602878C00728D06868EF
:1007D000012810D02168022810D0890700292EDABC
:1007E000616821F0030101436160FFF743FE804629
:1007F00041F288390DE021688903EFE78901EDE7CF
:10080000FFF738FEA0EB0801494502D90320BDE8F7
:10081000F0876068696800F00C00B0EB810FEFD1E1
:10082000306800F00700B8420BD9306820F00700AC
:1008300038433060306800F00700B84201D0012032
:10084000E5E72878400705D56068E96820F4E060AE
:10085000084360602878000706D56068296920F49D
:10086000605040EAC100606000F028F86168084A02
:10087000C1F30311515CC84006490860064800688E
:10088000FFF718FE0020C2E70020024000100240DF
:10089000C01A0008240000201C000020044805495C
:1008A00000684968044AC1F3C221515CC8407047DE
:1008B0002400002000100240D01A000812A185B0C8
:1008C0000FC98DE80F0014A0144A00680490516805
:1008D000134801F00C03042B10D0082B0ED1C1F3E8
:1008E0008343C9031DF803000AD5516804AAC1F364
:1008F0004041515C0A4A5043B0FBF1F005B07047EB
:1009000008494843FAE700000203040506070809FE
:100910000A0B0C0D0E0F1010010200000010024017
:1009200000127A0000093D002DE9F84F040070D054
:100930002078C04DC00749D06868C0F38100012805
:1009400007D06868C0F38100022809D16868C00335
:1009500006D52868800339D560680028E7D035E0DF
:100960006068B0F5803F0BD010B1B0F5A02F11D06A
:10097000286820F480302860286820F4802002E075
:10098000286840F480302860606890B1FFF772FDFD
:1009900006460AE0286840F480202860F0E700BF9F
:1009A000FFF768FD801B642873D828688003F7D59B
:1009B0000CE0FFF75FFD064605E000BFFFF75AFDBC
:1009C000801B6428F0D828688003F7D420789A4EDA
:1009D00080074FF001094FF0000839D5686810F022
:1009E0000C0F07D06868C0F38100022809D168683D
:1009F000C00306D42868800714D52069012808D1CF
:100A000010E02069B0B1C6F80090FFF733FD07464B
:100A100005E00AE1FFF72EFDC01B0228C4D82868B4
:100A20008007F7D52868616920F0F80040EAC10026
:100A300028600DE0C6F80080FFF71CFD074604E0C3
:100A4000FFF718FDC01B022823D828688007F7D4B9
:100A5000207800072CD57948A169D9B1C0F8009059
:100A6000FFF708FD074604E0FFF704FDC01B02285E
:100A70000FD8686A8007F7D571484FF4FA510068BB
:100A8000B0FBF1F0009000BF0098411E0091FAD237
:100A90000EE080E0C0F80080FFF7ECFC074604E0C1
:100AA000FFF7E8FCC01B022875D8686A8007F7D4F6
:100AB0002078400760D5E8690027C00008D4E869BD
:100AC00040F08050E861E869012700F08050009014
:100AD0005C480168C90513D40168834641F48071FC
:100AE0000160FFF7C7FC824606E000BFFFF7C2FCCB
:100AF000A0EB0A0064284ED8DBF80000C005F5D54D
:100B0000E06801280AD008B1052813D0286A20F02F
:100B100001002862286A20F0040002E0286A40F000
:100B200001002862E06841F2883B98B1FFF7A2FC1F
:100B300082460BE0286A40F004002862EEE700BF1E
:100B4000FFF798FCA0EB0A0159455AD8286A80079C
:100B5000F6D50CE0FFF78EFC824605E0FFF78AFC35
:100B6000A0EB0A0159454CD8286A8007F6D41FB17A
:100B7000E86920F08050E861E06988B36968C1F3F2
:100B80008101022944D00228C6F8608004D0FFF712
:100B900071FC044638E034E0FFF76CFC074604E0E3
:100BA000FFF768FCC01B02282BD828688001F7D407
:100BB000206AB0F5803F05D16868A16820F4003054
:100BC00008436860D4E908010843696821F4741196
:100BD00008436860C6F86090FFF74CFC044606E0E6
:100BE00025E000BFFFF746FC001B022809D8286853
:100BF0008001F7D51BE000BFFFF73CFC001B02287B
:100C000002D90320BDE8F88F28688001F4D40EE0F3
:100C10000128F7D06868226A00F48031914204D13B
:100C2000616A00F47010884201D00120EAE70020D8
:100C3000E8E7000000100240000042428004424207
:100C4000240000200070004070B5040003D0607CD8
:100C5000002610B105E0012070BD2674204600F08A
:100C600043F802206074204600F010F9042578BB98
:100C7000204600F017FC58BB2068416821F00701AE
:100C80004160A06820B11748016821F001010160AE
:100C90001448001F0168A26821F4607111430160CB
:100CA0006068411C04D10120FFF788FC80B1401E20
:100CB00021688A6822F00F0242EA10428A602168A5
:100CC000CA6860F30F02CA60204600F005FC08B154
:100CD0006574C0E7E67301206073A0736074002040
:100CE00070BD0000306C004008B5006808498842BB
:100CF0000DD1FFF75DFC0748C16941F00061C1619A
:100D0000C069054900F0006000900120086008BD3E
:100D100000280040001002403C0442422DE9F0410E
:100D20000D4604003BD0C5B3207C01283AD04FF0DB
:100D3000010884F8108002206074E87872B300F033
:100D4000A8FBE073687800F0A4FB6073A87800F05B
:100D5000A0FBA073C2B2617BE07B00F0EFFB2073CD
:100D60002870204600F0DAFB4FF46161B0FBF1F12E
:100D7000002518292DD91822B1FBF2F1A1EB0111A0
:100D800001EB4101C1EB011100EBC11631462046D8
:100D900000F013FC0427C8B90BE000E004E00120D8
:100DA000BDE8F0810220FBE7E07368786073A87803
:100DB000CFE7204600F0ABFB411C0AD0B04208D27E
:100DC00006490144204600F0E4FB10B16774257425
:100DD000E5E784F8118025740020E1E780510100E7
:100DE0002DE9F0410D46040024D01DB3207C0128DC
:100DF00023D04FF0010884F8108002206074287816
:100E0000EAB100F046FB4FF4616100FB01F668783F
:100E100000F03FFBC0EB001006EB8006A87800F066
:100E200038FB35182946204600F0C7FB002604276A
:100E300010BB0FE00120BDE8F0810220FBE74FF47A
:100E4000616148436978C1EB011100EB8100A97829
:100E50004518E7E72068416821F005014160204618
:100E600000F055FB411C0AD0A84208D206490144B3
:100E7000204600F08EFB10B167742674DAE784F820
:100E8000118026740020D6E78051010070B504005F
:100E90000AD02068416821F008014160FFF7EAFAB2
:100EA00005464FF47A7608E0012070BDFFF7E2FABC
:100EB000401BB04201D9032070BD20684068000784
:100EC000F4D5002070BD10B5401EB0F1807F01D375
:100ED000012010BD4FF0E02460610F21601700F089
:100EE0002BFC0020A06107202061002010BD70476E
:100EF0007047000070B590F83C20012A26D00124EC
:100F000080F83C40022280F83D2003685A689D68C2
:100F100022F070060A6832435A600D4B02689A420A
:100F200008D0B2F1804F05D00A4B9A4202D00A4B4A
:100F30009A4204D1496825F080031943916080F8F2
:100F40003D40002180F83C10084670BD022070BD75
:100F5000002C0140000400400008004010B50400CF
:100F600003D094F83D0010B107E0012010BD00202F
:100F700084F83C00204600F01FF8022084F83D0071
:100F8000211D206800F06CFB012084F8460084F8E5
:100F90003E0084F83F0084F8400084F8410084F863
:100FA000420084F8430084F8440084F8450084F843
:100FB0003D00002010BD000008B500680B498842C4
:100FC00012D10B48816941F400618161806900227E
:100FD00000F40060009011461920FFF7B7FABDE851
:100FE00008401920FFF7A4BA08BD0000002C0140FA
:100FF0000010024090F83D10012901D001207047F7
:10100000022180F83D100168CA6842F00102CA60FE
:1010100000680B49884208D0B0F1804F05D00949DB
:10102000884202D00849884204D1816801F0070152
:10103000062903D0016841F00101016000207047DA
:10104000002C0140000400400008004070B5044638
:1010500090F83C00012817D0012584F83C5002206C
:1010600084F83D002068826822F0770222F47F42F3
:1010700082600868502830D00DDC20284DD005DC77
:1010800098B310283BD148E0022070BD302844D0EE
:10109000402834D139E0602828D0702806D0B0F537
:1010A000805F2CD0B0F5005F29D10AE0CB68D1E990
:1010B0000121206800F00AFB2068816841F0770177
:1010C00009E0CB68D1E90121206800F0FFFA20682F
:1010D000816841F48041816011E0CA6849682068F4
:1010E00000F006FB5021206807E016E0CA68496856
:1010F000206800F00EFB6021206800F0F1FA84F80F
:101100003D50002084F83C0070BDCA6849682068E2
:1011100000F0EEFA40212068EFE722680146104611
:10112000EBE7704770B50446006801694FF00005B1
:10113000C943890715D4C168C943890711D4E91E79
:10114000016101202077206880698007204602D055
:10115000FFF7E7FF04E000F098F8204600F096F86B
:10116000257720680169C943490717D4C168C94375
:10117000490713D46FF00401016102202077206831
:10118000806910F4407F204602D0FFF7CAFF04E0D8
:1011900000F07BF8204600F079F825772068016997
:1011A000C943090716D4C168C943090712D46FF0AF
:1011B00008010161042020772068C069800720466B
:1011C00002D0FFF7AEFF04E000F05FF8204600F029
:1011D0005DF8257720680169C943C90617D4C1683D
:1011E000C943C90613D46FF01001016108202077AC
:1011F0002068C06910F4407F204602D0FFF791FFBD
:1012000004E000F042F8204600F040F8257720681E
:101210000169C943C90708D1C168C943C90704D1D5
:10122000891E0161204600F033F820680169C94336
:10123000090609D4C168C943090605D46FF08001C5
:1012400001612046FFF753FE20680169C943490642
:1012500009D4C168C943490605D46FF04001016152
:10126000204600F065F820680169C94389060BD45F
:10127000C168C943890607D46FF020010161204687
:10128000BDE87040FFF734BE70BD70477047000086
:101290002DE9F04100682349884240D1224C4FF4A7
:1012A00061620023D4E90401401C41F10001C4E95A
:1012B0000401FEF739FF9846154606466060284649
:1012C00041463C220023FEF72FFF0746A060284638
:1012D00041463C220023FEF727FFE260182E02DB86
:1012E0000020C4E904003C2F08DB172E06D1D4E906
:1012F00004103C3140F10000C4E9041020680521CD
:10130000401C90FBF1F2206001FB1200002806D186
:10131000BDE8F0414FF480510448FFF79DB8BDE8A7
:10132000F0810000002C0140000000200008014076
:101330007047FEE72DE9F04385B00024254800946E
:10134000019402940394816941F0100181618169E3
:1013500001F010010491816941F0200181618169EE
:1013600001F020010491816941F0040181618169EA
:1013700001F004010491816941F0080181618069F3
:10138000DFF8548000F0080049F6847504900022CC
:1013900029464046FFF768F8DFF840904FF61807F7
:1013A000002239464846FFF75FF8009502260125DE
:1013B0000396CDE9015469464046FEF75DFF00976C
:1013C0000396CDE9015469464846FEF755FF05B03E
:1013D000BDE8F0830010024000080140000C01400D
:1013E0001CB5002413480194114900940160611E4A
:1013F00041604FF480718160FFF726FC8DF8044056
:101400008DF805408DF80640012201A90948FFF733
:10141000E7FC01208DF800008DF801008DF8020036
:1014200002468DF8034069460248FFF777FC1CBD71
:10143000002800402800002010B586B00024124883
:10144000009401940294039404940E49059401605D
:101450004FF47A41C0E901140121C0E90314446149
:101460008461FFF77BFD4FF4805000906946064889
:10147000FFF7ECFD049404A903480594FFF73AFD37
:1014800006B010BD002C01403C000020FEE7704774
:101490007047010901EB810100F00F0000EB4100F2
:1014A000C0B2704770B50446FEF7E4FF05464FF43E
:1014B0007A7606E0FEF7DEFF401BB04201D903203A
:1014C00070BD206840688006F4D52068416841F00E
:1014D00010014160002070BD70B50446006841688D
:1014E00021F010014160FEF7C5FF05464FF47A7602
:1014F00007E000BFFEF7BEFF401BB04201D903204A
:1015000070BD206840688006F4D5002070BD016879
:10151000086A496A89B241EA0040704700688169F7
:101520008AB2C1698BB2816989B28A4203D0C0692B
:1015300061F31F40704743EA02407047F0B56424EE
:10154000C1EBC1030927A500072603EB01130329FB
:10155000B3FBF7F100F5FA60114401440AD2401ED2
:10156000B0FBF4F201EB9001B0FBF5F0891A0844EE
:10157000001D08E0B0FBF4F201EB9001B0FBF5F0C8
:10158000891A0844801CB0FBF6F106FB1100C0B2BA
:10159000F0BD70B50D4606460024FFF783FF48B93D
:1015A0003168280C08623168A8B248623046FFF7FB
:1015B00093FF00B10124204670BD70B50D4606466C
:1015C0000024FFF76FFF48B93168280C8861316843
:1015D000A8B2C8613046FFF77FFF00B10124204662
:1015E00070BD7047FEF74CBF70B594B028216846B7
:1015F000FEF7E2FD14210AA8FEF7DEFD00240F9499
:101600000920012510940090119412944FF4803019
:1016100004950695CDE901040226CDE907604FF453
:10162000C01009906846FFF77FF90F20CDE90A0640
:10163000A802CDE90C4002210AA80E94FFF798F801
:101640006802CDE90F500FA8FFF71CF814B070BD69
:10165000704700000148FFF765BD00003C00002016
:10166000F0B50268164B174C174D4FF08047984263
:1016700005D0B84203D0A04201D0A84203D122F045
:1016800070064A683243984205D0B84203D0A0425F
:1016900001D0A84203D122F44074CA6822434C69A5
:1016A00022F08002224302608A68C2620A68826273
:1016B000984201D10969016301214161F0BD000037
:1016C000002C0140000400400008004010B5846870
:1016D00042EA032224F47F440A432243826010BD7D
:1016E000826822F070020A4342F00701816070476D
:1016F00010B5036A046A24F001040462846924F0CA
:10170000F00444EA021423F00A020A4384610262EC
:1017100010BD10B5036A23F0100303628369046AE5
:1017200023F4704343EA023224F0A00343EA011198
:101730008261016210BDFEE70907090E002804DB83
:1017400000F1E02080F80014704700F00F0000F175
:10175000E02080F8141D704702E008C8121F08C17D
:10176000002AFAD170477047002001E001C1121F22
:10177000002AFBD17047000070B5194C0122D1023C
:101780002046FEF771FE0122D50329462046FEF7CA
:101790006BFE144E012251033046FEF765FE012216
:1017A00011022046FEF760FE012291033046FEF74B
:1017B0005BFE012291022046FEF756FE01225102F5
:1017C0002046FEF751FE012229463046FEF74CFE28
:1017D0002046BDE8704001221103FEF745BE00001F
:1017E00000080140000C014010B50B4C00221021F4
:1017F0002046FEF739FE0022A1142046FEF734FEF3
:10180000002208212046FEF72FFE0022BDE81040EE
:1018100004210248FEF728BE000C014000080140E8
:10182000FEF736FEFFF7E0FEFFF784FDFFF7D8FD79
:10183000FFF702FE304E012210213046FEF714FE63
:101840000122140321463046FEF70EFE0122082134
:101850003046FEF709FE294D012204212846FEF7F5
:1018600003FE2748FFF7C6FBA146A846254C0A25DC
:1018700041F28837FFF7B8FF012204214046FEF706
:10188000F3FDA06890FBF5F105FB110000F042F8B4
:10189000384600F039F8FFF7A7FF0122082130464B
:1018A000FEF7E2FDA06890FBF5F000F033F8384653
:1018B00000F02AF8FFF798FF012249463046FEF76C
:1018C000D3FD606890FBF5F105FB110000F022F8F4
:1018D000384600F019F8FFF787FF01221021304643
:1018E000FEF7C2FD606890FBF5F000F013F8384693
:1018F00000F00AF8BEE70000000C014000080140BB
:101900003C00002000000020002100E0491C814232
:10191000FCDB70472DE9F05F4FF40066664C370141
:10192000664D4FF400594FF4807B4FF480484FF4DC
:10193000007A0A287ED2DFE800F0051E293E5761B2
:10194000666D88A1FFF718FF002231462046FEF79A
:101950008BFD002239462046FEF786FD00224946CF
:101960002846FEF781FD002259462046FEF77CFD01
:10197000002241465CE0FFF7FFFE00223946204688
:10198000FEF772FD0022494628465AE0FFF7F4FEB2
:10199000002231462046FEF767FD002239462046E8
:1019A000FEF762FD002259462046FEF75DFD00224B
:1019B0004146284613E0FFF7DFFE0022314620466D
:1019C000FEF752FD002239462046FEF74DFD00226B
:1019D00049462846FEF748FD0022594667E0FEF7D3
:1019E00043FD002251462BE0FFF7C6FE0022394698
:1019F0002046FEF739FD0022494609E0FFF7BCFE0C
:101A00000022314643E0FFF7B7FE0022314625E0D1
:101A1000284647E0FFF7B0FE002231462046FEF799
:101A200023FD002239462046FEF71EFD00224946CE
:101A3000284600E03DE0FEF717FD00224FF48061EC
:101A40002046BDE8F05FFEF70FBDFFF795FE0022D0
:101A500031462046FEF708FD002239462046FEF7B3
:101A600003FD002249462846FEF7FEFC00225946A7
:101A70002046FEF7F9FC00224146C9E7FFF77CFE4D
:101A8000002231462046FEF7EFFC00223946204670
:101A9000FEF7EAFC002249462846FEF7E5FC002254
:101AA00059462046FEF7E0FC00224FF480612046B4
:101AB00095E7BDE8F09F000000080140000C0140E0
:101AC00000000000000000000102030406070809EE
:101AD0000000000001020304F81A000800000020C2
:101AE0002800000058170008201B000828000020CC
:101AF00060040000681700080000000000000000FB
:101B00000000000000000000F04F01000000000095
:101B10000100000010000000000000000024F4009C
:04000005080000ED02
:00000001FF
